:400000000010002011000000E5020000E502000010B500F06FF9000070B572B68024E40022000021284800F0F7FC22000021274800F0F2FCEE22264B12021A6099230621A7
:40004000244A1B041360244A00251360234A244C1360244A18201360234A13780B4313708322224B1A60224A224B1A600122224B1A60224A224B1A608022224B1A60C022A1
:40008000214B12041A60D822204B12011A6080222368D2021343236000F0A2F922681C4B1C49134023601C4A1C4B09201A601C4B063A1A60256000F061F9092000F066F9E9
:4000C000184B1D6070BDC04600300F4000400F400C00014000500F4010500F4020500F4000010B4030500F4000700F4000000440A40D400008000440000104404C1218006F
:4001000008010440000204400802044008030440FFFFFBFFA50500000600008004010B4008010B400C020B4010B5064C2378002B07D1054B002B02D0044800E000BF012359
:40014000237010BD8001002000000000280A0000084B10B5002B03D00749084800E000BF07480368002B00D110BD064B002BFBD09847F9E70000000084010020280A000097
:40018000C00000200000000070B50B4D0B4E0024285D01343030C0B200F012FB202000F00FFB032CF4D1033500F07EFAB542EED100F07AFA70BDC046BC010020C8010020FB
:4001C000F0B585B062B600F061FA0024414D012063590434984701950C2CF7D10023029300242500019BA700DB59062003939847019B00200C33FB5898470026354BB200EE
:400200001833D358984703227243334B1B199854002803D12F4B28331B199D5C0136042EECD1019B01200C33FB589847019B0120DB5901349847032CD4D1029BAB4243D029
:40024000002D33D0254800F022FA280000F0B8FA00F02AFAFFF798FF28002338162833D800F018FB1C323232323232123232323232170C0E1012171C0C0E100000201BE07C
:40028000012002E0012005E0002000F0F3F9002015E0002000F0EEF9012003E0012000F0E9F9002000F0CEF900200BE00C4800F0EEF900F0F9F9012000F0DCF9012000F050
:4002C000C1F9012000F0CAF9322000F069F8029586E7C046C4000020BC0100202C0A00003D0A000010B500F06BFB03680C2B00D1FEE7FEE7F8B500250F49104B01394A1C08
:4003000014D000221F685C689E68A018B24203D0B858A0500432F8E70200DE68141AA64201D020C2FAE710330139E8E700F04EFBFFF746FFFEE7C04601000000A40A000086
:40034000002370B50A480B4C0B4D9A002100032B00D8A95801338150302BF6D1FFF75CFE80220121D20513680B43136070BDC04600000020E502000000000000024B80001D
:40038000C318186819607047400000201F2318401E3B8340014A13607047C04600E100E070B5802504002D02064BAC4205D9586800F0E6F9044BE418F6E79868604300F0FC
:4003C000DFF970BDF80000200080FFFF10B5034B1B7B584300F0D4F910BDC046F8000020F0B5050087B000F0D5F9EB1E049003932D2B5BD8304B1B789D4204D82F4B1C7842
:400400002F4BE4B21EE02F4B1B789D4204D82E4B1C782E4BE4B215E02D4B1B789D4204D82C4B1C782C4BE4B20CE02C4B1B789D4204D82B4B1C782B4BE4B203E02A4B1C7844
:400440002A4BE4B21B78EA1EDBB20193284B294F9A5C059302922F2A04D92A2D02D919263E6008E03F233E681E40029BB34205D2204B029A1A60052000F082F91B4B1E4ACD
:40048000ED182B780520DBB213601C4B019A1C601B4B1A60FFF79AFF029BB34206D9059B039A05209B5C3B6000F06AF9049800F075F907B0F0BDC046C0F1FF0FC1F1FF0FE7
:4004C000C2F1FF0FC3F1FF0FC4F1FF0FC5F1FF0FC6F1FF0FC7F1FF0FC8F1FF0FC9F1FF0FCAF1FF0FCBF1FF0FCCF1FF0FCDF1FF0F4D0A00002CFF0B4028FF0B401CFF0B4009
:4005000020FF0B4010B500F045F9C021034A090213680B43136000F041F910BD00010B4010B5802400F036F90749084B0A68E4011A4022430A600A6813408022120213432A
:400540000B6000F02BF910BD00010B40FF3FFFFF70B5050000F01EF90E4B04001A68C0231B02134011D10C480C49054028000E680B4A3240104308600A68012B01D1FFF7EE
:40058000C1FF200000F00AF970BDFFF7C9FF0123E9E7C04600010B400404040010020B40FBFBFBFF042270B5224C2368134213D021490B6813420CD0204BDD6908681540DE
:4005C000A8430860D9699143D9611B69002B00D098470420FFF7BCFF80232268DB001A4215D015490A681A420DD0144AD56908682B4098430860D169114B0B40D361536948
:40060000002B00D098478020C000FFF7A1FF80232268DB021A420CD0074A12681A4204D0064B9B69002B00D098478020C002FFF78FFF70BD10020B400C0100209C01002024
:40064000FFFBFFFF0423044980000A689A43D2B2034013430B6070470000044008230449C0000A689A43D2B2034013430B607047000004404023044980010A689A43D2B2AE
:40068000034013430B60704700010440704770B5012405000078002805D000F091F8285D0134E4B2F7E770BD10B50D2000F088F80A2000F085F810BD0721034A13688B4367
:4006C000184310607047C04608000440012304490A689A43D2B2034013430B607047C046000004403821034AC00013688B43184310607047080004400223044940000A683C
:400700009A43D2B2034013430B607047000004400721034A13688B43184310607047C04608010440012304490A689A43D2B2034013430B607047C04600010440024B1868AF
:400740008007C00F7047C04604010440024B18684007C00F7047C04604010440024B18680007C00F7047C04604010440024B1868C006C00F7047C046040104400000000023
:400780000230800804D0C0460138FDD1C046C046C0467047EFF3108072B6704780F310887047C04600000000000000000000000000000000000000000000000000000000BC
:4007C000FEB5494652465B460EB407462E4909688A462E4A12682E48022100F065F803002A480068C0182A4900F05EF806001F3EB346234A126801219140C9430C000125FD
:400800000026FFF7C7FF814651460B6823400B6058460430FFF7B4FF3800F040284090400B68234003430B605846FFF7A9FF0136072EF1D900200130012090400B6823400B
:4008400003430B6058460630FFF79AFF4846FFF7A5FFC046C046C0460EBC894692469B46FEBDC046C046C046C046C046C046C046C046C046C046C046C046C046C046C046C3
:400880001801002014010020100100200801002000C2010002B4714649084900095C49008E4402BC7047C046002243088B4274D303098B425FD3030A8B4244D3030B8B4253
:4008C00028D3030C8B420DD3FF22090212BA030C8B4202D31212090265D0030B8B4219D300E0090AC30B8B4201D3CB03C01A5241830B8B4201D38B03C01A5241430B8B428B
:4009000001D34B03C01A5241030B8B4201D30B03C01A5241C30A8B4201D3CB02C01A5241830A8B4201D38B02C01A5241430A8B4201D34B02C01A5241030A8B4201D30B02CB
:40094000C01A5241CDD2C3098B4201D3CB01C01A524183098B4201D38B01C01A524143098B4201D34B01C01A524103098B4201D30B01C01A5241C3088B4201D3CB00C01AC2
:40098000524183088B4201D38B00C01A524143088B4201D34B00C01A5241411A00D20146524110467047FFE701B5002000F006F802BDC0460029F7D076E770477047C04698
:4009C000014B18687047C0467C0100200E4B70B500251E000D4CE41AA410A54204D0AB00F35898470135F8E700F04AF8084B00251E00084CE41AA410A54204D0AB00F358E1
:400A000098470135F8E770BD8C0A00008C0A00008C0A0000940A000003008218934202D019700133FAE7704700000000427574746F6E20707265737365643A200042757485
:400A4000746F6E2072656C656173656400030405060708090A0B0C0E0F101112131415161718191B1C1D1E1F2021222325262728292A2B2E2F30313233343543000000008D
:400A8000F8B5C046F8BC08BC9E4670475101000041030000F8B5C046F8BC08BC9E46704729010000B80A0000C0000020C0000000480000000000000000000000B906000081
:400AC000E506000011070000CD060000F9060000250700003D0700004D0700005D0700006D0700003132333435363738392A3023010000000000E02EC05D000018000000E7
:400B000000366E010404040000020440020000000700000000000000000000000000000000000000000000000000000000000000000000007B0A0000000000000000000030
:400B4000000000000000000000000000000000000000000000000000000000000000000000000000000000000000000000000000000000001C010020000000000000000038
:400B80000000000000000000000000000000000000000000000000000000000000000000000000000000000000000000000000000000000000000000000000000000000035
:400BC00000000000000000000000000000000000000000000000000000000000000000000000000000000000000000000000000000000000000000000000000000000000F5
:400C000000000000000000000000000000000000000000000000000000000000000000000000000000000000000000000000000000000000000000000000000000000000B4
:400C40000000000000000000000000000000000000000000000000000000000000000000000000000000000000000000000000000000000000000000000000000000000074
:0200000490303A
:0200000088A4D2
:0200000490402A
:200000000000000000000000000000000000000000000000000000000000000000000000E0
:0200000490501A
:0C000000000204C81193110104CB9A37D0
:0200000490600A
:0100000001FE
:00000001FF