:4000000000100020110000009D0200009D02000010B500F04BF9000070B572B68024E40022000021284800F0BDFC22000021274800F0B8FCEE22264B12021A6099230621CF
:40004000244A1B041360244A00251360234A244C1360244A18201360234A13780B4313708322224B1A60224A224B1A600122224B1A60224A224B1A608022224B1A60C022A1
:40008000214B12041A60D822204B12011A6080222368D2021343236000F07EF922681C4B1C49134023601C4A1C4B09201A601C4B063A1A60256000F03DF9092000F042F955
:4000C000184B1D6070BDC04600300F4000400F400C00014000500F4010500F4020500F4000010B4030500F4000700F4000000440A40D400008000440000104404C1218006F
:4001000008010440000204400802044008030440FFFFFBFF5D0500000600008004010B4008010B400C020B4010B5064C2378002B07D1054B002B02D0044800E000BF0123A1
:40014000237010BD8801002000000000C8090000084B10B5002B03D00749084800E000BF07480368002B00D110BD064B002BFBD09847F9E7000000008C010020C809000049
:40018000C000002000000000F0B585B062B600F059FA00253B4C01202B59043598470C2DF8D10023019300263500B3000293E3580620039398472300B2000C33D358002030
:4001C000984700272300BA001833D3589847002805D1032223007A4328339B199D5C0137042FEFD12300029A0C33D35801209847029B0120E35801369847032ED5D1019BE6
:40020000AB4239D0002D37D01F4E232D2AD1210000221E4833783431C25400F0CBFB00280FD11B4800F00FFA1A4F012000F0FEF9013F012000F0EEF9002FF6D1002333708E
:400240001AE0154800F0FFF9124F012000F0D6F9012000F0DFF9013F002000F0E7F9002FF3D1EBE73378082B06D85A1C3270074A2A20D55400F074FA322000F06DF80195ED
:4002800091E7C046C4000020A4010020C8010020CC090000E7030000DD09000010B500F055FB03680C2B00D1FEE7FEE7F8B500250F49104B01394A1C14D000221F685C68D1
:4002C0009E68A018B24203D0B858A0500432F8E70200DE68141AA64201D020C2FAE710330139E8E700F038FBFFF74EFFFEE7C04601000000440A0000002370B50A480B4C95
:400300000B4D9A002100032B00D8A95801338150302BF6D1FFF780FE80220121D20513680B43136070BDC046000000209D02000000000000024B8000C318186819607047E7
:40034000400000201F2318401E3B8340014A13607047C04600E100E070B5802504002D02064BAC4205D9586800F0DEF9044BE418F6E79868604300F0D7F970BDFC000020B6
:400380000080FFFF10B5034B1B7B584300F0CCF910BDC046FC000020F0B5050087B000F0CDF9EB1E049003932D2B5BD8304B1B789D4204D82F4B1C782F4BE4B21EE02F4B23
:4003C0001B789D4204D82E4B1C782E4BE4B215E02D4B1B789D4204D82C4B1C782C4BE4B20CE02C4B1B789D4204D82B4B1C782B4BE4B203E02A4B1C782A4BE4B21B78EA1E67
:40040000DBB20193284B294F9A5C059302922F2A04D92A2D02D919263E6008E03F233E681E40029BB34205D2204B029A1A60052000F07AF91B4B1E4AED182B780520DBB261
:4004400013601C4B019A1C601B4B1A60FFF79AFF029BB34206D9059B039A05209B5C3B6000F062F9049800F06DF907B0F0BDC046C0F1FF0FC1F1FF0FC2F1FF0FC3F1FF0F0E
:40048000C4F1FF0FC5F1FF0FC6F1FF0FC7F1FF0FC8F1FF0FC9F1FF0FCAF1FF0FCBF1FF0FCCF1FF0FCDF1FF0FED0900002CFF0B4028FF0B401CFF0B4020FF0B4010B500F00E
:4004C0003DF9C021034A090213680B43136000F039F910BD00010B4010B5802400F02EF90749084B0A68E4011A4022430A600A6813408022120213430B6000F023F910BD5E
:4005000000010B40FF3FFFFF70B5050000F016F90E4B04001A68C0231B02134011D10C480C49054028000E680B4A3240104308600A68012B01D1FFF7C1FF200000F002F9B7
:4005400070BDFFF7C9FF0123E9E7C04600010B400404040010020B40FBFBFBFF042270B5224C2368134213D021490B6813420CD0204BDD6908681540A8430860D969914388
:40058000D9611B69002B00D098470420FFF7BCFF80232268DB001A4215D015490A681A420DD0144AD56908682B4098430860D169114B0B40D3615369002B00D09847802077
:4005C000C000FFF7A1FF80232268DB021A420CD0074A12681A4204D0064B9B69002B00D098478020C002FFF78FFF70BD10020B4010010020A8010020FFFBFFFF0423044963
:4006000080000A689A43D2B2034013430B6070470000044008230449C0000A689A43D2B2034013430B607047000004404023044980010A689A43D2B2034013430B6070479F
:4006400000010440704770B5012405000078002805D000F085F8285D0134E4B2F7E770BD0721034A13688B43184310607047C04608000440012304490A689A43D2B20340D9
:4006800013430B607047C046000004403821034AC00013688B43184310607047080004400223044940000A689A43D2B2034013430B607047000004400721034A13688B43B9
:4006C000184310607047C04608010440012304490A689A43D2B2034013430B607047C04600010440024B18688007C00F7047C04604010440024B18684007C00F7047C04612
:4007000004010440024B18680007C00F7047C04604010440024B1868C006C00F7047C04604010440000000000230800804D0C0460138FDD1C046C046C0467047EFF3108089
:4007400072B6704780F310887047C0460000000000000000000000000000000000000000FEB5494652465B460EB407462E4909688A462E4A12682E48022100F05BF80300BF
:400780002A480068C0182A4900F054F806001F3EB346234A126801219140C9430C0001250026FFF7CBFF814651460B6823400B6058460430FFF7B8FF3800F04028409040C0
:4007C0000B68234003430B605846FFF7ADFF0136072EF1D900200130012090400B68234003430B6058460630FFF79EFF4846FFF7A9FFC046C046C0460EBC894692469B463C
:40080000FEBDC046C046C046C046C046C046C046C046C046C046C046C046C046C046C0461C01002018010020140100200C01002000C20100002243088B4274D303098B42AE
:400840005FD3030A8B4244D3030B8B4228D3030C8B420DD3FF22090212BA030C8B4202D31212090265D0030B8B4219D300E0090AC30B8B4201D3CB03C01A5241830B8B42F7
:4008800001D38B03C01A5241430B8B4201D34B03C01A5241030B8B4201D30B03C01A5241C30A8B4201D3CB02C01A5241830A8B4201D38B02C01A5241430A8B4201D34B028A
:4008C000C01A5241030A8B4201D30B02C01A5241CDD2C3098B4201D3CB01C01A524183098B4201D38B01C01A524143098B4201D34B01C01A524103098B4201D30B01C01ABF
:400900005241C3088B4201D3CB00C01A524183088B4201D38B00C01A524143088B4201D34B00C01A5241411A00D20146524110467047FFE701B5002000F006F802BDC04635
:400940000029F7D076E770477047C046014B18687047C046800100200E4B70B500251E000D4CE41AA410A54204D0AB00F35898470135F8E700F054F8084B00251E00084CF5
:40098000E41AA410A54204D0AB00F35898470135F8E770BD2C0A00002C0A00002C0A0000340A000003008218934202D019700133FAE7704702780B78002A03D001300131DD
:4009C0009A42F7D0D01A70470000000041636365737320616C6C6F7765640D0A004163636573732064656E6965640D0A00030405060708090A0B0C0E0F1011121314151663
:400A00001718191B1C1D1E1F2021222325262728292A2B2E2F3031323334354300000000F8B5C046F8BC08BC9E46704751010000F9020000F8B5C046F8BC08BC9E46704797
:400A400029010000580A0000C0000020C8000000500000000000000000000000610600008D060000B906000075060000A1060000CD060000E5060000F50600000507000052
:400A8000150700003132333435363738392A302331323300010000000000E02EC05D00001800000000366E01040404000002044002000000070000000000000000000000E6
:400AC0000000000000000000000000000000000000000000000000001B0A0000000000000000000000000000000000000000000000000000000000000000000000000000D1
:400B00000000000000000000000000000000000000000000000000002001002000000000000000000000000000000000000000000000000000000000000000000000000074
:400B40000000000000000000000000000000000000000000000000000000000000000000000000000000000000000000000000000000000000000000000000000000000075
:400B80000000000000000000000000000000000000000000000000000000000000000000000000000000000000000000000000000000000000000000000000000000000035
:400BC00000000000000000000000000000000000000000000000000000000000000000000000000000000000000000000000000000000000000000000000000000000000F5
:400C000000000000000000000000000000000000000000000000000000000000000000000000000000000000000000000000000000000000000000000000000000000000B4
:0200000490303A
:02000000643664
:0200000490402A
:200000000000000000000000000000000000000000000000000000000000000000000000E0
:0200000490501A
:0C000000000204C81193110104CB75C963
:0200000490600A
:0100000001FE
:00000001FF